{
  "address": "0x1a3Aa3359cA7B8f73f376311bCE3FC522a1E711c",
  "abi": [
    {
      "anonymous": false,
      "inputs": [
        {
          "indexed": true,
          "internalType": "address",
          "name": "borrower",
          "type": "address"
        },
        {
          "indexed": false,
          "internalType": "uint256",
          "name": "amount",
          "type": "uint256"
        }
      ],
      "name": "Borrowed",
      "type": "event"
    },
    {
      "anonymous": false,
      "inputs": [
        {
          "indexed": false,
          "internalType": "uint8",
          "name": "version",
          "type": "uint8"
        }
      ],
      "name": "Initialized",
      "type": "event"
    },
    {
      "anonymous": false,
      "inputs": [
        {
          "indexed": true,
          "internalType": "address",
          "name": "lender",
          "type": "address"
        },
        {
          "indexed": false,
          "internalType": "uint256",
          "name": "amount",
          "type": "uint256"
        }
      ],
      "name": "Lended",
      "type": "event"
    },
    {
      "anonymous": false,
      "inputs": [
        {
          "indexed": true,
          "internalType": "address",
          "name": "previousOwner",
          "type": "address"
        },
        {
          "indexed": true,
          "internalType": "address",
          "name": "newOwner",
          "type": "address"
        }
      ],
      "name": "OwnershipTransferStarted",
      "type": "event"
    },
    {
      "anonymous": false,
      "inputs": [
        {
          "indexed": true,
          "internalType": "address",
          "name": "previousOwner",
          "type": "address"
        },
        {
          "indexed": true,
          "internalType": "address",
          "name": "newOwner",
          "type": "address"
        }
      ],
      "name": "OwnershipTransferred",
      "type": "event"
    },
    {
      "anonymous": false,
      "inputs": [
        {
          "indexed": true,
          "internalType": "address",
          "name": "account",
          "type": "address"
        },
        {
          "indexed": false,
          "internalType": "bool",
          "name": "isWhitelisted",
          "type": "bool"
        }
      ],
      "name": "WhitelistUpdated",
      "type": "event"
    },
    {
      "anonymous": false,
      "inputs": [
        {
          "indexed": true,
          "internalType": "address",
          "name": "owner",
          "type": "address"
        },
        {
          "indexed": false,
          "internalType": "uint256",
          "name": "amount",
          "type": "uint256"
        }
      ],
      "name": "Withdrawn",
      "type": "event"
    },
    {
      "inputs": [],
      "name": "acceptOwnership",
      "outputs": [],
      "stateMutability": "nonpayable",
      "type": "function"
    },
    {
      "inputs": [],
      "name": "borrowFaucet",
      "outputs": [],
      "stateMutability": "nonpayable",
      "type": "function"
    },
    {
      "inputs": [
        {
          "internalType": "address",
          "name": "",
          "type": "address"
        }
      ],
      "name": "borrowers",
      "outputs": [
        {
          "internalType": "uint256",
          "name": "",
          "type": "uint256"
        }
      ],
      "stateMutability": "view",
      "type": "function"
    },
    {
      "inputs": [],
      "name": "initialize",
      "outputs": [],
      "stateMutability": "nonpayable",
      "type": "function"
    },
    {
      "inputs": [
        {
          "internalType": "address",
          "name": "",
          "type": "address"
        }
      ],
      "name": "isWhitelistedAccount",
      "outputs": [
        {
          "internalType": "bool",
          "name": "",
          "type": "bool"
        }
      ],
      "stateMutability": "view",
      "type": "function"
    },
    {
      "inputs": [
        {
          "internalType": "address",
          "name": "",
          "type": "address"
        }
      ],
      "name": "lastBorrowedTimestamp",
      "outputs": [
        {
          "internalType": "uint256",
          "name": "",
          "type": "uint256"
        }
      ],
      "stateMutability": "view",
      "type": "function"
    },
    {
      "inputs": [],
      "name": "lendFaucet",
      "outputs": [],
      "stateMutability": "payable",
      "type": "function"
    },
    {
      "inputs": [
        {
          "internalType": "address",
          "name": "",
          "type": "address"
        }
      ],
      "name": "lenders",
      "outputs": [
        {
          "internalType": "uint256",
          "name": "",
          "type": "uint256"
        }
      ],
      "stateMutability": "view",
      "type": "function"
    },
    {
      "inputs": [],
      "name": "owner",
      "outputs": [
        {
          "internalType": "address",
          "name": "",
          "type": "address"
        }
      ],
      "stateMutability": "view",
      "type": "function"
    },
    {
      "inputs": [],
      "name": "pendingOwner",
      "outputs": [
        {
          "internalType": "address",
          "name": "",
          "type": "address"
        }
      ],
      "stateMutability": "view",
      "type": "function"
    },
    {
      "inputs": [],
      "name": "renounceOwnership",
      "outputs": [],
      "stateMutability": "nonpayable",
      "type": "function"
    },
    {
      "inputs": [
        {
          "internalType": "address",
          "name": "newOwner",
          "type": "address"
        }
      ],
      "name": "transferOwnership",
      "outputs": [],
      "stateMutability": "nonpayable",
      "type": "function"
    },
    {
      "inputs": [
        {
          "internalType": "address",
          "name": "account",
          "type": "address"
        },
        {
          "internalType": "bool",
          "name": "isWhitelisted",
          "type": "bool"
        }
      ],
      "name": "updateWhitelistedAccount",
      "outputs": [],
      "stateMutability": "nonpayable",
      "type": "function"
    },
    {
      "inputs": [
        {
          "internalType": "uint256",
          "name": "amount",
          "type": "uint256"
        }
      ],
      "name": "withdraw",
      "outputs": [],
      "stateMutability": "nonpayable",
      "type": "function"
    },
    {
      "stateMutability": "payable",
      "type": "receive"
    }
  ],
  "transactionHash": "0xb299f37dac0798dedd4c451b220a4f5f8f21e6ea91ff9aaadd372de2ad69fa06",
  "args": [],
  "numDeployments": 2,
  "solcInputHash": "9c6e0d4fc395c999b9f3d00a0119677d",
  "bytecode": "0x6080604052348015600f57600080fd5b5061164a8061001f6000396000f3fe6080604052600436106100e15760003560e01c80638129fc1c1161007f578063c01cd1c711610059578063c01cd1c714610291578063e30c3978146102ba578063f0d5b1d0146102e5578063f2fde38b146102ef576100e8565b80638129fc1c146102125780638da5cb5b14610229578063bf5d50c414610254576100e8565b80632e1a7d4d116100bb5780632e1a7d4d1461017e57806354789a5e146101a7578063715018a6146101e457806379ba5097146101fb576100e8565b806301b25258146100ed57806322e4a5281461010457806328fd10d714610141576100e8565b366100e857005b600080fd5b3480156100f957600080fd5b50610102610318565b005b34801561011057600080fd5b5061012b60048036038101906101269190610f03565b61061b565b6040516101389190610f49565b60405180910390f35b34801561014d57600080fd5b5061016860048036038101906101639190610f03565b610633565b6040516101759190610f49565b60405180910390f35b34801561018a57600080fd5b506101a560048036038101906101a09190610f90565b61064b565b005b3480156101b357600080fd5b506101ce60048036038101906101c99190610f03565b610794565b6040516101db9190610fd8565b60405180910390f35b3480156101f057600080fd5b506101f96107b4565b005b34801561020757600080fd5b506102106107c8565b005b34801561021e57600080fd5b50610227610855565b005b34801561023557600080fd5b5061023e610993565b60405161024b9190611002565b60405180910390f35b34801561026057600080fd5b5061027b60048036038101906102769190610f03565b6109bd565b6040516102889190610f49565b60405180910390f35b34801561029d57600080fd5b506102b860048036038101906102b39190611049565b6109d5565b005b3480156102c657600080fd5b506102cf610a86565b6040516102dc9190611002565b60405180910390f35b6102ed610ab0565b005b3480156102fb57600080fd5b5061031660048036038101906103119190610f03565b610b99565b005b60006702c68af0bb1400009050609960003373ffffffffffffffffffffffffffffffffffffffff1673ffffffffffffffffffffffffffffffffffffffff16815260200190815260200160002060009054906101000a900460ff166103b1576040517f08c379a00000000000000000000000000000000000000000000000000000000081526004016103a8906110e6565b60405180910390fd5b804710156103f4576040517f08c379a00000000000000000000000000000000000000000000000000000000081526004016103eb90611152565b60405180910390fd5b617080609a60003373ffffffffffffffffffffffffffffffffffffffff1673ffffffffffffffffffffffffffffffffffffffff1681526020019081526020016000205461044191906111a1565b421015610483576040517f08c379a000000000000000000000000000000000000000000000000000000000815260040161047a90611247565b60405180910390fd5b60003373ffffffffffffffffffffffffffffffffffffffff16826040516104a990611298565b60006040518083038185875af1925050503d80600081146104e6576040519150601f19603f3d011682016040523d82523d6000602084013e6104eb565b606091505b505090508061052f576040517f08c379a0000000000000000000000000000000000000000000000000000000008152600401610526906112f9565b60405180910390fd5b81609860003373ffffffffffffffffffffffffffffffffffffffff1673ffffffffffffffffffffffffffffffffffffffff168152602001908152602001600020600082825461057e91906111a1565b9250508190555042609a60003373ffffffffffffffffffffffffffffffffffffffff1673ffffffffffffffffffffffffffffffffffffffff168152602001908152602001600020819055503373ffffffffffffffffffffffffffffffffffffffff167fac59582e5396aca512fa873a2047e7f4c80f8f55d4a06cb34a78a0187f62719f8360405161060f9190610f49565b60405180910390a25050565b609a6020528060005260406000206000915090505481565b60976020528060005260406000206000915090505481565b610653610c46565b80471015610696576040517f08c379a000000000000000000000000000000000000000000000000000000000815260040161068d90611152565b60405180910390fd5b60003373ffffffffffffffffffffffffffffffffffffffff16826040516106bc90611298565b60006040518083038185875af1925050503d80600081146106f9576040519150601f19603f3d011682016040523d82523d6000602084013e6106fe565b606091505b5050905080610742576040517f08c379a0000000000000000000000000000000000000000000000000000000008152600401610739906112f9565b60405180910390fd5b3373ffffffffffffffffffffffffffffffffffffffff167f7084f5476618d8e60b11ef0d7d3f06914655adb8793e28ff7f018d4c76d505d5836040516107889190610f49565b60405180910390a25050565b60996020528060005260406000206000915054906101000a900460ff1681565b6107bc610c46565b6107c66000610cc4565b565b60006107d2610cf5565b90508073ffffffffffffffffffffffffffffffffffffffff166107f3610a86565b73ffffffffffffffffffffffffffffffffffffffff1614610849576040517f08c379a00000000000000000000000000000000000000000000000000000000081526004016108409061138b565b60405180910390fd5b61085281610cc4565b50565b60008060019054906101000a900460ff161590508080156108865750600160008054906101000a900460ff1660ff16105b806108b3575061089530610cfd565b1580156108b25750600160008054906101000a900460ff1660ff16145b5b6108f2576040517f08c379a00000000000000000000000000000000000000000000000000000000081526004016108e99061141d565b60405180910390fd5b60016000806101000a81548160ff021916908360ff160217905550801561092f576001600060016101000a81548160ff0219169083151502179055505b610937610d20565b80156109905760008060016101000a81548160ff0219169083151502179055507f7f26b83ff96e1f2b6a682f133852f6798a09c465da95921460cefb38474024986001604051610987919061148f565b60405180910390a15b50565b6000603360009054906101000a900473ffffffffffffffffffffffffffffffffffffffff16905090565b60986020528060005260406000206000915090505481565b6109dd610c46565b80609960008473ffffffffffffffffffffffffffffffffffffffff1673ffffffffffffffffffffffffffffffffffffffff16815260200190815260200160002060006101000a81548160ff0219169083151502179055508173ffffffffffffffffffffffffffffffffffffffff167ff93f9a76c1bf3444d22400a00cb9fe990e6abe9dbb333fda48859cfee864543d82604051610a7a9190610fd8565b60405180910390a25050565b6000606560009054906101000a900473ffffffffffffffffffffffffffffffffffffffff16905090565b60003411610af3576040517f08c379a0000000000000000000000000000000000000000000000000000000008152600401610aea906114f6565b60405180910390fd5b34609760003373ffffffffffffffffffffffffffffffffffffffff1673ffffffffffffffffffffffffffffffffffffffff1681526020019081526020016000206000828254610b4291906111a1565b925050819055503373ffffffffffffffffffffffffffffffffffffffff167fc06e9f2d4dc93d7f30aeb5344ef386d5a8d4c62e8a6edfa1c51a6a15ac58765134604051610b8f9190610f49565b60405180910390a2565b610ba1610c46565b80606560006101000a81548173ffffffffffffffffffffffffffffffffffffffff021916908373ffffffffffffffffffffffffffffffffffffffff1602179055508073ffffffffffffffffffffffffffffffffffffffff16610c01610993565b73ffffffffffffffffffffffffffffffffffffffff167f38d16b8cac22d99fc7c124b9cd0de2d3fa1faef420bfe791d8c362d765e2270060405160405180910390a350565b610c4e610cf5565b73ffffffffffffffffffffffffffffffffffffffff16610c6c610993565b73ffffffffffffffffffffffffffffffffffffffff1614610cc2576040517f08c379a0000000000000000000000000000000000000000000000000000000008152600401610cb990611562565b60405180910390fd5b565b606560006101000a81549073ffffffffffffffffffffffffffffffffffffffff0219169055610cf281610d79565b50565b600033905090565b6000808273ffffffffffffffffffffffffffffffffffffffff163b119050919050565b600060019054906101000a900460ff16610d6f576040517f08c379a0000000000000000000000000000000000000000000000000000000008152600401610d66906115f4565b60405180910390fd5b610d77610e3f565b565b6000603360009054906101000a900473ffffffffffffffffffffffffffffffffffffffff16905081603360006101000a81548173ffffffffffffffffffffffffffffffffffffffff021916908373ffffffffffffffffffffffffffffffffffffffff1602179055508173ffffffffffffffffffffffffffffffffffffffff168173ffffffffffffffffffffffffffffffffffffffff167f8be0079c531659141344cd1fd0a4f28419497f9722a3daafe3b4186f6b6457e060405160405180910390a35050565b600060019054906101000a900460ff16610e8e576040517f08c379a0000000000000000000000000000000000000000000000000000000008152600401610e85906115f4565b60405180910390fd5b610e9e610e99610cf5565b610cc4565b565b600080fd5b600073ffffffffffffffffffffffffffffffffffffffff82169050919050565b6000610ed082610ea5565b9050919050565b610ee081610ec5565b8114610eeb57600080fd5b50565b600081359050610efd81610ed7565b92915050565b600060208284031215610f1957610f18610ea0565b5b6000610f2784828501610eee565b91505092915050565b6000819050919050565b610f4381610f30565b82525050565b6000602082019050610f5e6000830184610f3a565b92915050565b610f6d81610f30565b8114610f7857600080fd5b50565b600081359050610f8a81610f64565b92915050565b600060208284031215610fa657610fa5610ea0565b5b6000610fb484828501610f7b565b91505092915050565b60008115159050919050565b610fd281610fbd565b82525050565b6000602082019050610fed6000830184610fc9565b92915050565b610ffc81610ec5565b82525050565b60006020820190506110176000830184610ff3565b92915050565b61102681610fbd565b811461103157600080fd5b50565b6000813590506110438161101d565b92915050565b600080604083850312156110605761105f610ea0565b5b600061106e85828601610eee565b925050602061107f85828601611034565b9150509250929050565b600082825260208201905092915050565b7f4e6f7420612077686974656c6973746564206163636f756e7400000000000000600082015250565b60006110d0601983611089565b91506110db8261109a565b602082019050919050565b600060208201905081810360008301526110ff816110c3565b9050919050565b7f496e73756666696369656e742062616c616e6365000000000000000000000000600082015250565b600061113c601483611089565b915061114782611106565b602082019050919050565b6000602082019050818103600083015261116b8161112f565b9050919050565b7f4e487b7100000000000000000000000000000000000000000000000000000000600052601160045260246000fd5b60006111ac82610f30565b91506111b783610f30565b92508282019050808211156111cf576111ce611172565b5b92915050565b7f57616974203820686f757273206265666f726520626f72726f77696e6720616760008201527f61696e0000000000000000000000000000000000000000000000000000000000602082015250565b6000611231602383611089565b915061123c826111d5565b604082019050919050565b6000602082019050818103600083015261126081611224565b9050919050565b600081905092915050565b50565b6000611282600083611267565b915061128d82611272565b600082019050919050565b60006112a382611275565b9150819050919050565b7f5472616e73666572206661696c65640000000000000000000000000000000000600082015250565b60006112e3600f83611089565b91506112ee826112ad565b602082019050919050565b60006020820190508181036000830152611312816112d6565b9050919050565b7f4f776e61626c6532537465703a2063616c6c6572206973206e6f74207468652060008201527f6e6577206f776e65720000000000000000000000000000000000000000000000602082015250565b6000611375602983611089565b915061138082611319565b604082019050919050565b600060208201905081810360008301526113a481611368565b9050919050565b7f496e697469616c697a61626c653a20636f6e747261637420697320616c72656160008201527f647920696e697469616c697a6564000000000000000000000000000000000000602082015250565b6000611407602e83611089565b9150611412826113ab565b604082019050919050565b60006020820190508181036000830152611436816113fa565b9050919050565b6000819050919050565b600060ff82169050919050565b6000819050919050565b600061147961147461146f8461143d565b611454565b611447565b9050919050565b6114898161145e565b82525050565b60006020820190506114a46000830184611480565b92915050565b7f496e636f72726563742045746865722073656e74000000000000000000000000600082015250565b60006114e0601483611089565b91506114eb826114aa565b602082019050919050565b6000602082019050818103600083015261150f816114d3565b9050919050565b7f4f776e61626c653a2063616c6c6572206973206e6f7420746865206f776e6572600082015250565b600061154c602083611089565b915061155782611516565b602082019050919050565b6000602082019050818103600083015261157b8161153f565b9050919050565b7f496e697469616c697a61626c653a20636f6e7472616374206973206e6f74206960008201527f6e697469616c697a696e67000000000000000000000000000000000000000000602082015250565b60006115de602b83611089565b91506115e982611582565b604082019050919050565b6000602082019050818103600083015261160d816115d1565b905091905056fea26469706673582212202a262c3e52cb7b2c09927dc488f3d33a5680ce0e086fe1320e86570f4d14c11564736f6c63430008190033",
  "devdoc": {
    "events": {
      "Initialized(uint8)": {
        "details": "Triggered when the contract has been initialized or reinitialized."
      }
    },
    "kind": "dev",
    "methods": {
      "acceptOwnership()": {
        "details": "The new owner accepts the ownership transfer."
      },
      "owner()": {
        "details": "Returns the address of the current owner."
      },
      "pendingOwner()": {
        "details": "Returns the address of the pending owner."
      },
      "renounceOwnership()": {
        "details": "Leaves the contract without owner. It will not be possible to call `onlyOwner` functions. Can only be called by the current owner. NOTE: Renouncing ownership will leave the contract without an owner, thereby disabling any functionality that is only available to the owner."
      },
      "transferOwnership(address)": {
        "details": "Starts the ownership transfer of the contract to a new account. Replaces the pending transfer if there is one. Can only be called by the current owner."
      }
    },
    "version": 1
  },
  "userdoc": {
    "kind": "user",
    "methods": {
      "borrowFaucet()": {
        "notice": "Allows whitelisted users to borrow Ether from the contract"
      },
      "initialize()": {
        "notice": "Initializer function (replaces constructor)"
      },
      "lendFaucet()": {
        "notice": "Allows lenders to deposit Ether into the treasury"
      },
      "updateWhitelistedAccount(address,bool)": {
        "notice": "Updates the whitelist status of an account"
      },
      "withdraw(uint256)": {
        "notice": "Allows the owner to withdraw Ether from the treasury"
      }
    },
    "version": 1
  },
  "storageLayout": {
    "storage": [
      {
        "astId": 246,
        "contract": "contracts/SyvoraTreasury.sol:SyvoraTreasury",
        "label": "_initialized",
        "offset": 0,
        "slot": "0",
        "type": "t_uint8"
      },
      {
        "astId": 249,
        "contract": "contracts/SyvoraTreasury.sol:SyvoraTreasury",
        "label": "_initializing",
        "offset": 1,
        "slot": "0",
        "type": "t_bool"
      },
      {
        "astId": 788,
        "contract": "contracts/SyvoraTreasury.sol:SyvoraTreasury",
        "label": "__gap",
        "offset": 0,
        "slot": "1",
        "type": "t_array(t_uint256)50_storage"
      },
      {
        "astId": 118,
        "contract": "contracts/SyvoraTreasury.sol:SyvoraTreasury",
        "label": "_owner",
        "offset": 0,
        "slot": "51",
        "type": "t_address"
      },
      {
        "astId": 238,
        "contract": "contracts/SyvoraTreasury.sol:SyvoraTreasury",
        "label": "__gap",
        "offset": 0,
        "slot": "52",
        "type": "t_array(t_uint256)49_storage"
      },
      {
        "astId": 11,
        "contract": "contracts/SyvoraTreasury.sol:SyvoraTreasury",
        "label": "_pendingOwner",
        "offset": 0,
        "slot": "101",
        "type": "t_address"
      },
      {
        "astId": 105,
        "contract": "contracts/SyvoraTreasury.sol:SyvoraTreasury",
        "label": "__gap",
        "offset": 0,
        "slot": "102",
        "type": "t_array(t_uint256)49_storage"
      },
      {
        "astId": 803,
        "contract": "contracts/SyvoraTreasury.sol:SyvoraTreasury",
        "label": "lenders",
        "offset": 0,
        "slot": "151",
        "type": "t_mapping(t_address,t_uint256)"
      },
      {
        "astId": 807,
        "contract": "contracts/SyvoraTreasury.sol:SyvoraTreasury",
        "label": "borrowers",
        "offset": 0,
        "slot": "152",
        "type": "t_mapping(t_address,t_uint256)"
      },
      {
        "astId": 811,
        "contract": "contracts/SyvoraTreasury.sol:SyvoraTreasury",
        "label": "isWhitelistedAccount",
        "offset": 0,
        "slot": "153",
        "type": "t_mapping(t_address,t_bool)"
      },
      {
        "astId": 815,
        "contract": "contracts/SyvoraTreasury.sol:SyvoraTreasury",
        "label": "lastBorrowedTimestamp",
        "offset": 0,
        "slot": "154",
        "type": "t_mapping(t_address,t_uint256)"
      }
    ],
    "types": {
      "t_address": {
        "encoding": "inplace",
        "label": "address",
        "numberOfBytes": "20"
      },
      "t_array(t_uint256)49_storage": {
        "base": "t_uint256",
        "encoding": "inplace",
        "label": "uint256[49]",
        "numberOfBytes": "1568"
      },
      "t_array(t_uint256)50_storage": {
        "base": "t_uint256",
        "encoding": "inplace",
        "label": "uint256[50]",
        "numberOfBytes": "1600"
      },
      "t_bool": {
        "encoding": "inplace",
        "label": "bool",
        "numberOfBytes": "1"
      },
      "t_mapping(t_address,t_bool)": {
        "encoding": "mapping",
        "key": "t_address",
        "label": "mapping(address => bool)",
        "numberOfBytes": "32",
        "value": "t_bool"
      },
      "t_mapping(t_address,t_uint256)": {
        "encoding": "mapping",
        "key": "t_address",
        "label": "mapping(address => uint256)",
        "numberOfBytes": "32",
        "value": "t_uint256"
      },
      "t_uint256": {
        "encoding": "inplace",
        "label": "uint256",
        "numberOfBytes": "32"
      },
      "t_uint8": {
        "encoding": "inplace",
        "label": "uint8",
        "numberOfBytes": "1"
      }
    }
  }
}