{
  "address": "0xf5D9d28B70bc385E87B33b9b17782E4701975130",
  "abi": [
    {
      "anonymous": false,
      "inputs": [
        {
          "indexed": true,
          "internalType": "address",
          "name": "borrower",
          "type": "address"
        },
        {
          "indexed": false,
          "internalType": "uint256",
          "name": "amount",
          "type": "uint256"
        }
      ],
      "name": "Borrowed",
      "type": "event"
    },
    {
      "anonymous": false,
      "inputs": [
        {
          "indexed": false,
          "internalType": "uint8",
          "name": "version",
          "type": "uint8"
        }
      ],
      "name": "Initialized",
      "type": "event"
    },
    {
      "anonymous": false,
      "inputs": [
        {
          "indexed": true,
          "internalType": "address",
          "name": "lender",
          "type": "address"
        },
        {
          "indexed": false,
          "internalType": "uint256",
          "name": "amount",
          "type": "uint256"
        }
      ],
      "name": "Lended",
      "type": "event"
    },
    {
      "anonymous": false,
      "inputs": [
        {
          "indexed": true,
          "internalType": "address",
          "name": "previousOwner",
          "type": "address"
        },
        {
          "indexed": true,
          "internalType": "address",
          "name": "newOwner",
          "type": "address"
        }
      ],
      "name": "OwnershipTransferStarted",
      "type": "event"
    },
    {
      "anonymous": false,
      "inputs": [
        {
          "indexed": true,
          "internalType": "address",
          "name": "previousOwner",
          "type": "address"
        },
        {
          "indexed": true,
          "internalType": "address",
          "name": "newOwner",
          "type": "address"
        }
      ],
      "name": "OwnershipTransferred",
      "type": "event"
    },
    {
      "anonymous": false,
      "inputs": [
        {
          "indexed": true,
          "internalType": "address",
          "name": "account",
          "type": "address"
        },
        {
          "indexed": false,
          "internalType": "bool",
          "name": "isWhitelisted",
          "type": "bool"
        }
      ],
      "name": "WhitelistUpdated",
      "type": "event"
    },
    {
      "anonymous": false,
      "inputs": [
        {
          "indexed": true,
          "internalType": "address",
          "name": "owner",
          "type": "address"
        },
        {
          "indexed": false,
          "internalType": "uint256",
          "name": "amount",
          "type": "uint256"
        }
      ],
      "name": "Withdrawn",
      "type": "event"
    },
    {
      "inputs": [],
      "name": "acceptOwnership",
      "outputs": [],
      "stateMutability": "nonpayable",
      "type": "function"
    },
    {
      "inputs": [
        {
          "internalType": "address",
          "name": "account",
          "type": "address"
        }
      ],
      "name": "borrowFaucet",
      "outputs": [],
      "stateMutability": "nonpayable",
      "type": "function"
    },
    {
      "inputs": [
        {
          "internalType": "address",
          "name": "",
          "type": "address"
        }
      ],
      "name": "borrowers",
      "outputs": [
        {
          "internalType": "uint256",
          "name": "",
          "type": "uint256"
        }
      ],
      "stateMutability": "view",
      "type": "function"
    },
    {
      "inputs": [],
      "name": "initialize",
      "outputs": [],
      "stateMutability": "nonpayable",
      "type": "function"
    },
    {
      "inputs": [
        {
          "internalType": "address",
          "name": "",
          "type": "address"
        }
      ],
      "name": "isWhitelistedAccount",
      "outputs": [
        {
          "internalType": "bool",
          "name": "",
          "type": "bool"
        }
      ],
      "stateMutability": "view",
      "type": "function"
    },
    {
      "inputs": [
        {
          "internalType": "address",
          "name": "",
          "type": "address"
        }
      ],
      "name": "lastBorrowedTimestamp",
      "outputs": [
        {
          "internalType": "uint256",
          "name": "",
          "type": "uint256"
        }
      ],
      "stateMutability": "view",
      "type": "function"
    },
    {
      "inputs": [],
      "name": "lendFaucet",
      "outputs": [],
      "stateMutability": "payable",
      "type": "function"
    },
    {
      "inputs": [
        {
          "internalType": "address",
          "name": "",
          "type": "address"
        }
      ],
      "name": "lenders",
      "outputs": [
        {
          "internalType": "uint256",
          "name": "",
          "type": "uint256"
        }
      ],
      "stateMutability": "view",
      "type": "function"
    },
    {
      "inputs": [],
      "name": "owner",
      "outputs": [
        {
          "internalType": "address",
          "name": "",
          "type": "address"
        }
      ],
      "stateMutability": "view",
      "type": "function"
    },
    {
      "inputs": [],
      "name": "pendingOwner",
      "outputs": [
        {
          "internalType": "address",
          "name": "",
          "type": "address"
        }
      ],
      "stateMutability": "view",
      "type": "function"
    },
    {
      "inputs": [],
      "name": "renounceOwnership",
      "outputs": [],
      "stateMutability": "nonpayable",
      "type": "function"
    },
    {
      "inputs": [
        {
          "internalType": "address",
          "name": "newOwner",
          "type": "address"
        }
      ],
      "name": "transferOwnership",
      "outputs": [],
      "stateMutability": "nonpayable",
      "type": "function"
    },
    {
      "inputs": [
        {
          "internalType": "address",
          "name": "account",
          "type": "address"
        },
        {
          "internalType": "bool",
          "name": "isWhitelisted",
          "type": "bool"
        }
      ],
      "name": "updateWhitelistedAccount",
      "outputs": [],
      "stateMutability": "nonpayable",
      "type": "function"
    },
    {
      "inputs": [
        {
          "internalType": "uint256",
          "name": "amount",
          "type": "uint256"
        }
      ],
      "name": "withdraw",
      "outputs": [],
      "stateMutability": "nonpayable",
      "type": "function"
    },
    {
      "stateMutability": "payable",
      "type": "receive"
    }
  ],
  "transactionHash": "0x0c4bd96665f616f9c12687e0462fab97cc6e9dc4b8964df2fe76209962551d2d",
  "args": [],
  "numDeployments": 1,
  "solcInputHash": "ed2f978d647e1c2cc2e528f04c27dd09",
  "bytecode": "0x6080604052348015600f57600080fd5b5061172a8061001f6000396000f3fe6080604052600436106100e15760003560e01c80638129fc1c1161007f578063c01cd1c711610059578063c01cd1c7146102a3578063e30c3978146102cc578063f0d5b1d0146102f7578063f2fde38b14610301576100e8565b80638129fc1c146102245780638da5cb5b1461023b578063bf5d50c414610266576100e8565b806354789a5e116100bb57806354789a5e1461019057806367b4982c146101cd578063715018a6146101f657806379ba50971461020d576100e8565b806322e4a528146100ed57806328fd10d71461012a5780632e1a7d4d14610167576100e8565b366100e857005b600080fd5b3480156100f957600080fd5b50610114600480360381019061010f9190610f77565b61032a565b6040516101219190610fbd565b60405180910390f35b34801561013657600080fd5b50610151600480360381019061014c9190610f77565b610342565b60405161015e9190610fbd565b60405180910390f35b34801561017357600080fd5b5061018e60048036038101906101899190611004565b61035a565b005b34801561019c57600080fd5b506101b760048036038101906101b29190610f77565b6104a3565b6040516101c4919061104c565b60405180910390f35b3480156101d957600080fd5b506101f460048036038101906101ef9190610f77565b6104c3565b005b34801561020257600080fd5b5061020b610828565b005b34801561021957600080fd5b5061022261083c565b005b34801561023057600080fd5b506102396108c9565b005b34801561024757600080fd5b50610250610a07565b60405161025d9190611076565b60405180910390f35b34801561027257600080fd5b5061028d60048036038101906102889190610f77565b610a31565b60405161029a9190610fbd565b60405180910390f35b3480156102af57600080fd5b506102ca60048036038101906102c591906110bd565b610a49565b005b3480156102d857600080fd5b506102e1610afa565b6040516102ee9190611076565b60405180910390f35b6102ff610b24565b005b34801561030d57600080fd5b5061032860048036038101906103239190610f77565b610c0d565b005b609a6020528060005260406000206000915090505481565b60976020528060005260406000206000915090505481565b610362610cba565b804710156103a5576040517f08c379a000000000000000000000000000000000000000000000000000000000815260040161039c9061115a565b60405180910390fd5b60003373ffffffffffffffffffffffffffffffffffffffff16826040516103cb906111ab565b60006040518083038185875af1925050503d8060008114610408576040519150601f19603f3d011682016040523d82523d6000602084013e61040d565b606091505b5050905080610451576040517f08c379a00000000000000000000000000000000000000000000000000000000081526004016104489061120c565b60405180910390fd5b3373ffffffffffffffffffffffffffffffffffffffff167f7084f5476618d8e60b11ef0d7d3f06914655adb8793e28ff7f018d4c76d505d5836040516104979190610fbd565b60405180910390a25050565b60996020528060005260406000206000915054906101000a900460ff1681565b60006702c68af0bb14000090506706f05b59d3b200008273ffffffffffffffffffffffffffffffffffffffff163110610531576040517f08c379a000000000000000000000000000000000000000000000000000000000815260040161052890611278565b60405180910390fd5b609960008373ffffffffffffffffffffffffffffffffffffffff1673ffffffffffffffffffffffffffffffffffffffff16815260200190815260200160002060009054906101000a900460ff166105bd576040517f08c379a00000000000000000000000000000000000000000000000000000000081526004016105b4906112e4565b60405180910390fd5b80471015610600576040517f08c379a00000000000000000000000000000000000000000000000000000000081526004016105f79061115a565b60405180910390fd5b617080609a60008473ffffffffffffffffffffffffffffffffffffffff1673ffffffffffffffffffffffffffffffffffffffff1681526020019081526020016000205461064d9190611333565b42101561068f576040517f08c379a0000000000000000000000000000000000000000000000000000000008152600401610686906113d9565b60405180910390fd5b60008273ffffffffffffffffffffffffffffffffffffffff16826040516106b5906111ab565b60006040518083038185875af1925050503d80600081146106f2576040519150601f19603f3d011682016040523d82523d6000602084013e6106f7565b606091505b505090508061073b576040517f08c379a00000000000000000000000000000000000000000000000000000000081526004016107329061120c565b60405180910390fd5b81609860008573ffffffffffffffffffffffffffffffffffffffff1673ffffffffffffffffffffffffffffffffffffffff168152602001908152602001600020600082825461078a9190611333565b9250508190555042609a60008573ffffffffffffffffffffffffffffffffffffffff1673ffffffffffffffffffffffffffffffffffffffff168152602001908152602001600020819055508273ffffffffffffffffffffffffffffffffffffffff167fac59582e5396aca512fa873a2047e7f4c80f8f55d4a06cb34a78a0187f62719f8360405161081b9190610fbd565b60405180910390a2505050565b610830610cba565b61083a6000610d38565b565b6000610846610d69565b90508073ffffffffffffffffffffffffffffffffffffffff16610867610afa565b73ffffffffffffffffffffffffffffffffffffffff16146108bd576040517f08c379a00000000000000000000000000000000000000000000000000000000081526004016108b49061146b565b60405180910390fd5b6108c681610d38565b50565b60008060019054906101000a900460ff161590508080156108fa5750600160008054906101000a900460ff1660ff16105b80610927575061090930610d71565b1580156109265750600160008054906101000a900460ff1660ff16145b5b610966576040517f08c379a000000000000000000000000000000000000000000000000000000000815260040161095d906114fd565b60405180910390fd5b60016000806101000a81548160ff021916908360ff16021790555080156109a3576001600060016101000a81548160ff0219169083151502179055505b6109ab610d94565b8015610a045760008060016101000a81548160ff0219169083151502179055507f7f26b83ff96e1f2b6a682f133852f6798a09c465da95921460cefb384740249860016040516109fb919061156f565b60405180910390a15b50565b6000603360009054906101000a900473ffffffffffffffffffffffffffffffffffffffff16905090565b60986020528060005260406000206000915090505481565b610a51610cba565b80609960008473ffffffffffffffffffffffffffffffffffffffff1673ffffffffffffffffffffffffffffffffffffffff16815260200190815260200160002060006101000a81548160ff0219169083151502179055508173ffffffffffffffffffffffffffffffffffffffff167ff93f9a76c1bf3444d22400a00cb9fe990e6abe9dbb333fda48859cfee864543d82604051610aee919061104c565b60405180910390a25050565b6000606560009054906101000a900473ffffffffffffffffffffffffffffffffffffffff16905090565b60003411610b67576040517f08c379a0000000000000000000000000000000000000000000000000000000008152600401610b5e906115d6565b60405180910390fd5b34609760003373ffffffffffffffffffffffffffffffffffffffff1673ffffffffffffffffffffffffffffffffffffffff1681526020019081526020016000206000828254610bb69190611333565b925050819055503373ffffffffffffffffffffffffffffffffffffffff167fc06e9f2d4dc93d7f30aeb5344ef386d5a8d4c62e8a6edfa1c51a6a15ac58765134604051610c039190610fbd565b60405180910390a2565b610c15610cba565b80606560006101000a81548173ffffffffffffffffffffffffffffffffffffffff021916908373ffffffffffffffffffffffffffffffffffffffff1602179055508073ffffffffffffffffffffffffffffffffffffffff16610c75610a07565b73ffffffffffffffffffffffffffffffffffffffff167f38d16b8cac22d99fc7c124b9cd0de2d3fa1faef420bfe791d8c362d765e2270060405160405180910390a350565b610cc2610d69565b73ffffffffffffffffffffffffffffffffffffffff16610ce0610a07565b73ffffffffffffffffffffffffffffffffffffffff1614610d36576040517f08c379a0000000000000000000000000000000000000000000000000000000008152600401610d2d90611642565b60405180910390fd5b565b606560006101000a81549073ffffffffffffffffffffffffffffffffffffffff0219169055610d6681610ded565b50565b600033905090565b6000808273ffffffffffffffffffffffffffffffffffffffff163b119050919050565b600060019054906101000a900460ff16610de3576040517f08c379a0000000000000000000000000000000000000000000000000000000008152600401610dda906116d4565b60405180910390fd5b610deb610eb3565b565b6000603360009054906101000a900473ffffffffffffffffffffffffffffffffffffffff16905081603360006101000a81548173ffffffffffffffffffffffffffffffffffffffff021916908373ffffffffffffffffffffffffffffffffffffffff1602179055508173ffffffffffffffffffffffffffffffffffffffff168173ffffffffffffffffffffffffffffffffffffffff167f8be0079c531659141344cd1fd0a4f28419497f9722a3daafe3b4186f6b6457e060405160405180910390a35050565b600060019054906101000a900460ff16610f02576040517f08c379a0000000000000000000000000000000000000000000000000000000008152600401610ef9906116d4565b60405180910390fd5b610f12610f0d610d69565b610d38565b565b600080fd5b600073ffffffffffffffffffffffffffffffffffffffff82169050919050565b6000610f4482610f19565b9050919050565b610f5481610f39565b8114610f5f57600080fd5b50565b600081359050610f7181610f4b565b92915050565b600060208284031215610f8d57610f8c610f14565b5b6000610f9b84828501610f62565b91505092915050565b6000819050919050565b610fb781610fa4565b82525050565b6000602082019050610fd26000830184610fae565b92915050565b610fe181610fa4565b8114610fec57600080fd5b50565b600081359050610ffe81610fd8565b92915050565b60006020828403121561101a57611019610f14565b5b600061102884828501610fef565b91505092915050565b60008115159050919050565b61104681611031565b82525050565b6000602082019050611061600083018461103d565b92915050565b61107081610f39565b82525050565b600060208201905061108b6000830184611067565b92915050565b61109a81611031565b81146110a557600080fd5b50565b6000813590506110b781611091565b92915050565b600080604083850312156110d4576110d3610f14565b5b60006110e285828601610f62565b92505060206110f3858286016110a8565b9150509250929050565b600082825260208201905092915050565b7f496e73756666696369656e742062616c616e6365000000000000000000000000600082015250565b60006111446014836110fd565b915061114f8261110e565b602082019050919050565b6000602082019050818103600083015261117381611137565b9050919050565b600081905092915050565b50565b600061119560008361117a565b91506111a082611185565b600082019050919050565b60006111b682611188565b9150819050919050565b7f5472616e73666572206661696c65640000000000000000000000000000000000600082015250565b60006111f6600f836110fd565b9150611201826111c0565b602082019050919050565b60006020820190508181036000830152611225816111e9565b9050919050565b7f416c726561647920686176696e672073756666696369656e742066756e647300600082015250565b6000611262601f836110fd565b915061126d8261122c565b602082019050919050565b6000602082019050818103600083015261129181611255565b9050919050565b7f4e6f7420612077686974656c6973746564206163636f756e7400000000000000600082015250565b60006112ce6019836110fd565b91506112d982611298565b602082019050919050565b600060208201905081810360008301526112fd816112c1565b9050919050565b7f4e487b7100000000000000000000000000000000000000000000000000000000600052601160045260246000fd5b600061133e82610fa4565b915061134983610fa4565b925082820190508082111561136157611360611304565b5b92915050565b7f57616974203820686f757273206265666f726520626f72726f77696e6720616760008201527f61696e0000000000000000000000000000000000000000000000000000000000602082015250565b60006113c36023836110fd565b91506113ce82611367565b604082019050919050565b600060208201905081810360008301526113f2816113b6565b9050919050565b7f4f776e61626c6532537465703a2063616c6c6572206973206e6f74207468652060008201527f6e6577206f776e65720000000000000000000000000000000000000000000000602082015250565b60006114556029836110fd565b9150611460826113f9565b604082019050919050565b6000602082019050818103600083015261148481611448565b9050919050565b7f496e697469616c697a61626c653a20636f6e747261637420697320616c72656160008201527f647920696e697469616c697a6564000000000000000000000000000000000000602082015250565b60006114e7602e836110fd565b91506114f28261148b565b604082019050919050565b60006020820190508181036000830152611516816114da565b9050919050565b6000819050919050565b600060ff82169050919050565b6000819050919050565b600061155961155461154f8461151d565b611534565b611527565b9050919050565b6115698161153e565b82525050565b60006020820190506115846000830184611560565b92915050565b7f496e636f72726563742045746865722073656e74000000000000000000000000600082015250565b60006115c06014836110fd565b91506115cb8261158a565b602082019050919050565b600060208201905081810360008301526115ef816115b3565b9050919050565b7f4f776e61626c653a2063616c6c6572206973206e6f7420746865206f776e6572600082015250565b600061162c6020836110fd565b9150611637826115f6565b602082019050919050565b6000602082019050818103600083015261165b8161161f565b9050919050565b7f496e697469616c697a61626c653a20636f6e7472616374206973206e6f74206960008201527f6e697469616c697a696e67000000000000000000000000000000000000000000602082015250565b60006116be602b836110fd565b91506116c982611662565b604082019050919050565b600060208201905081810360008301526116ed816116b1565b905091905056fea264697066735822122098a1f9dbf86ecc01adb7cfeb82f66512d8877888577c760e21456ab3c9b7587d64736f6c63430008190033",
  "devdoc": {
    "events": {
      "Initialized(uint8)": {
        "details": "Triggered when the contract has been initialized or reinitialized."
      }
    },
    "kind": "dev",
    "methods": {
      "acceptOwnership()": {
        "details": "The new owner accepts the ownership transfer."
      },
      "owner()": {
        "details": "Returns the address of the current owner."
      },
      "pendingOwner()": {
        "details": "Returns the address of the pending owner."
      },
      "renounceOwnership()": {
        "details": "Leaves the contract without owner. It will not be possible to call `onlyOwner` functions. Can only be called by the current owner. NOTE: Renouncing ownership will leave the contract without an owner, thereby disabling any functionality that is only available to the owner."
      },
      "transferOwnership(address)": {
        "details": "Starts the ownership transfer of the contract to a new account. Replaces the pending transfer if there is one. Can only be called by the current owner."
      }
    },
    "version": 1
  },
  "userdoc": {
    "kind": "user",
    "methods": {
      "borrowFaucet(address)": {
        "notice": "Allows whitelisted users to borrow Ether from the contract"
      },
      "initialize()": {
        "notice": "Initializer function (replaces constructor)"
      },
      "lendFaucet()": {
        "notice": "Allows lenders to deposit Ether into the treasury"
      },
      "updateWhitelistedAccount(address,bool)": {
        "notice": "Updates the whitelist status of an account"
      },
      "withdraw(uint256)": {
        "notice": "Allows the owner to withdraw Ether from the treasury"
      }
    },
    "version": 1
  },
  "storageLayout": {
    "storage": [
      {
        "astId": 246,
        "contract": "contracts/SyvoraTreasury.sol:SyvoraTreasury",
        "label": "_initialized",
        "offset": 0,
        "slot": "0",
        "type": "t_uint8"
      },
      {
        "astId": 249,
        "contract": "contracts/SyvoraTreasury.sol:SyvoraTreasury",
        "label": "_initializing",
        "offset": 1,
        "slot": "0",
        "type": "t_bool"
      },
      {
        "astId": 788,
        "contract": "contracts/SyvoraTreasury.sol:SyvoraTreasury",
        "label": "__gap",
        "offset": 0,
        "slot": "1",
        "type": "t_array(t_uint256)50_storage"
      },
      {
        "astId": 118,
        "contract": "contracts/SyvoraTreasury.sol:SyvoraTreasury",
        "label": "_owner",
        "offset": 0,
        "slot": "51",
        "type": "t_address"
      },
      {
        "astId": 238,
        "contract": "contracts/SyvoraTreasury.sol:SyvoraTreasury",
        "label": "__gap",
        "offset": 0,
        "slot": "52",
        "type": "t_array(t_uint256)49_storage"
      },
      {
        "astId": 11,
        "contract": "contracts/SyvoraTreasury.sol:SyvoraTreasury",
        "label": "_pendingOwner",
        "offset": 0,
        "slot": "101",
        "type": "t_address"
      },
      {
        "astId": 105,
        "contract": "contracts/SyvoraTreasury.sol:SyvoraTreasury",
        "label": "__gap",
        "offset": 0,
        "slot": "102",
        "type": "t_array(t_uint256)49_storage"
      },
      {
        "astId": 803,
        "contract": "contracts/SyvoraTreasury.sol:SyvoraTreasury",
        "label": "lenders",
        "offset": 0,
        "slot": "151",
        "type": "t_mapping(t_address,t_uint256)"
      },
      {
        "astId": 807,
        "contract": "contracts/SyvoraTreasury.sol:SyvoraTreasury",
        "label": "borrowers",
        "offset": 0,
        "slot": "152",
        "type": "t_mapping(t_address,t_uint256)"
      },
      {
        "astId": 811,
        "contract": "contracts/SyvoraTreasury.sol:SyvoraTreasury",
        "label": "isWhitelistedAccount",
        "offset": 0,
        "slot": "153",
        "type": "t_mapping(t_address,t_bool)"
      },
      {
        "astId": 815,
        "contract": "contracts/SyvoraTreasury.sol:SyvoraTreasury",
        "label": "lastBorrowedTimestamp",
        "offset": 0,
        "slot": "154",
        "type": "t_mapping(t_address,t_uint256)"
      }
    ],
    "types": {
      "t_address": {
        "encoding": "inplace",
        "label": "address",
        "numberOfBytes": "20"
      },
      "t_array(t_uint256)49_storage": {
        "base": "t_uint256",
        "encoding": "inplace",
        "label": "uint256[49]",
        "numberOfBytes": "1568"
      },
      "t_array(t_uint256)50_storage": {
        "base": "t_uint256",
        "encoding": "inplace",
        "label": "uint256[50]",
        "numberOfBytes": "1600"
      },
      "t_bool": {
        "encoding": "inplace",
        "label": "bool",
        "numberOfBytes": "1"
      },
      "t_mapping(t_address,t_bool)": {
        "encoding": "mapping",
        "key": "t_address",
        "label": "mapping(address => bool)",
        "numberOfBytes": "32",
        "value": "t_bool"
      },
      "t_mapping(t_address,t_uint256)": {
        "encoding": "mapping",
        "key": "t_address",
        "label": "mapping(address => uint256)",
        "numberOfBytes": "32",
        "value": "t_uint256"
      },
      "t_uint256": {
        "encoding": "inplace",
        "label": "uint256",
        "numberOfBytes": "32"
      },
      "t_uint8": {
        "encoding": "inplace",
        "label": "uint8",
        "numberOfBytes": "1"
      }
    }
  }
}